{
  "contractName": "Election",
  "abi": [
    {
      "constant": true,
      "inputs": [],
      "name": "candidatesCount",
      "outputs": [
        {
          "name": "",
          "type": "uint256"
        }
      ],
      "payable": false,
      "stateMutability": "view",
      "type": "function"
    },
    {
      "constant": true,
      "inputs": [
        {
          "name": "",
          "type": "uint256"
        }
      ],
      "name": "candidates",
      "outputs": [
        {
          "name": "id",
          "type": "uint256"
        },
        {
          "name": "name",
          "type": "string"
        },
        {
          "name": "voteCount",
          "type": "uint256"
        }
      ],
      "payable": false,
      "stateMutability": "view",
      "type": "function"
    },
    {
      "inputs": [],
      "payable": false,
      "stateMutability": "nonpayable",
      "type": "constructor"
    },
    {
      "anonymous": false,
      "inputs": [
        {
          "indexed": true,
          "name": "candidateId",
          "type": "uint256"
        },
        {
          "indexed": false,
          "name": "name",
          "type": "string"
        },
        {
          "indexed": false,
          "name": "voteCount",
          "type": "uint256"
        }
      ],
      "name": "CandidateAdded",
      "type": "event"
    },
    {
      "anonymous": false,
      "inputs": [
        {
          "indexed": true,
          "name": "candidateId",
          "type": "uint256"
        }
      ],
      "name": "Voted",
      "type": "event"
    },
    {
      "constant": false,
      "inputs": [
        {
          "name": "_name",
          "type": "string"
        }
      ],
      "name": "addCandidate",
      "outputs": [],
      "payable": false,
      "stateMutability": "nonpayable",
      "type": "function"
    },
    {
      "constant": false,
      "inputs": [
        {
          "name": "_candidateId",
          "type": "uint256"
        }
      ],
      "name": "vote",
      "outputs": [],
      "payable": false,
      "stateMutability": "nonpayable",
      "type": "function"
    }
  ],
  "bytecode": "0x608060405234801561001057600080fd5b5061005e6040805190810160405280600b81526020017f43616e64696461746520310000000000000000000000000000000000000000008152506100fd640100000000026401000000009004565b6100ab6040805190810160405280600b81526020017f43616e64696461746520320000000000000000000000000000000000000000008152506100fd640100000000026401000000009004565b6100f86040805190810160405280600b81526020017f43616e64696461746520330000000000000000000000000000000000000000008152506100fd640100000000026401000000009004565b6102c6565b600160008154809291906001019190505550606060405190810160405280600154815260200182815260200160008152506000806001548152602001908152602001600020600082015181600001556020820151816001019080519060200190610168929190610221565b50604082015181600201559050506001547fc0a81c9aad7f882e7dd72db314924227026255cc5ad0164435df572dec8c804d8260006040518080602001838152602001828103825284818151815260200191508051906020019080838360005b838110156101e35780820151818401526020810190506101c8565b50505050905090810190601f1680156102105780820380516001836020036101000a031916815260200191505b50935050505060405180910390a250565b828054600181600116156101000203166002900490600052602060002090601f016020900481019282601f1061026257805160ff1916838001178555610290565b82800160010185558215610290579182015b8281111561028f578251825591602001919060010190610274565b5b50905061029d91906102a1565b5090565b6102c391905b808211156102bf5760008160009055506001016102a7565b5090565b90565b6105e9806102d56000396000f3fe60806040526004361061005c576000357c0100000000000000000000000000000000000000000000000000000000900480630121b93f146100615780632d35a8a21461009c5780633477ee2e146100c7578063462e91ec14610189575b600080fd5b34801561006d57600080fd5b5061009a6004803603602081101561008457600080fd5b8101908080359060200190929190505050610251565b005b3480156100a857600080fd5b506100b161032c565b6040518082815260200191505060405180910390f35b3480156100d357600080fd5b50610100600480360360208110156100ea57600080fd5b8101908080359060200190929190505050610332565b6040518084815260200180602001838152602001828103825284818151815260200191508051906020019080838360005b8381101561014c578082015181840152602081019050610131565b50505050905090810190601f1680156101795780820380516001836020036101000a031916815260200191505b5094505050505060405180910390f35b34801561019557600080fd5b5061024f600480360360208110156101ac57600080fd5b81019080803590602001906401000000008111156101c957600080fd5b8201836020820111156101db57600080fd5b803590602001918460018302840111640100000000831117156101fd57600080fd5b91908080601f016020809104026020016040519081016040528093929190818152602001838380828437600081840152601f19601f8201169050808301925050505050505091929192905050506103f4565b005b60008111801561026357506001548111155b15156102d7576040517f08c379a00000000000000000000000000000000000000000000000000000000081526004018080602001828103825260148152602001807f496e76616c69642063616e64696461746520494400000000000000000000000081525060200191505060405180910390fd5b60008082815260200190815260200160002060020160008154809291906001019190505550807f7f511e347bf51eed3be100b3194247d5207f05f3b33de7d31e3e8ee73199a04960405160405180910390a250565b60015481565b6000602052806000526040600020600091509050806000015490806001018054600181600116156101000203166002900480601f0160208091040260200160405190810160405280929190818152602001828054600181600116156101000203166002900480156103e45780601f106103b9576101008083540402835291602001916103e4565b820191906000526020600020905b8154815290600101906020018083116103c757829003601f168201915b5050505050908060020154905083565b60016000815480929190600101919050555060606040519081016040528060015481526020018281526020016000815250600080600154815260200190815260200160002060008201518160000155602082015181600101908051906020019061045f929190610518565b50604082015181600201559050506001547fc0a81c9aad7f882e7dd72db314924227026255cc5ad0164435df572dec8c804d8260006040518080602001838152602001828103825284818151815260200191508051906020019080838360005b838110156104da5780820151818401526020810190506104bf565b50505050905090810190601f1680156105075780820380516001836020036101000a031916815260200191505b50935050505060405180910390a250565b828054600181600116156101000203166002900490600052602060002090601f016020900481019282601f1061055957805160ff1916838001178555610587565b82800160010185558215610587579182015b8281111561058657825182559160200191906001019061056b565b5b5090506105949190610598565b5090565b6105ba91905b808211156105b657600081600090555060010161059e565b5090565b9056fea165627a7a7230582096205bd64751d739d80e6909f9e310b8b71a4ea0643d36ac55679290310137f60029",
  "source": "// SPDX-License-Identifier: MIT\r\npragma solidity ^0.5.1;\r\n\r\ncontract Election {\r\n    struct Candidate {\r\n        uint id;\r\n        string name;\r\n        uint voteCount;\r\n    }\r\n\r\n    mapping(uint => Candidate) public candidates;\r\n    uint public candidatesCount;\r\n\r\n    event CandidateAdded(uint indexed candidateId, string name, uint voteCount);\r\n    event Voted(uint indexed candidateId);\r\n\r\n    constructor() public {\r\n        addCandidate(\"Candidate 1\");\r\n        addCandidate(\"Candidate 2\");\r\n        addCandidate(\"Candidate 3\");\r\n    }\r\n\r\n    function addCandidate(string memory _name) public {\r\n        candidatesCount++;\r\n        candidates[candidatesCount] = Candidate(candidatesCount, _name, 0);\r\n        emit CandidateAdded(candidatesCount, _name, 0);\r\n    }\r\n\r\n    function vote(uint _candidateId) public {\r\n        require(_candidateId > 0 && _candidateId <= candidatesCount, \"Invalid candidate ID\");\r\n        candidates[_candidateId].voteCount++;\r\n        emit Voted(_candidateId);\r\n    }\r\n}\r\n",
  "sourcePath": "C:\\Users\\elroofey\\Gombe_election\\contracts\\Election.sol",
  "compiler": {
    "name": "solc",
    "version": "0.5.1+commit.c8a2cb62.Emscripten.clang"
  },
  "schemaVersion": "3.4.16",
  "updatedAt": "2024-07-22T14:26:16.680Z",
  "networkType": "ethereum",
  "devdoc": {
    "methods": {}
  },
  "userdoc": {
    "methods": {}
  }
}